{
  "contractName": "MarketContract",
  "abi": [
    {
      "inputs": [
        {
          "internalType": "address",
          "name": "_userContract",
          "type": "address"
        },
        {
          "internalType": "address",
          "name": "_energyDataContract",
          "type": "address"
        }
      ],
      "stateMutability": "nonpayable",
      "type": "constructor"
    },
    {
      "anonymous": false,
      "inputs": [
        {
          "indexed": true,
          "internalType": "uint256",
          "name": "listingId",
          "type": "uint256"
        },
        {
          "indexed": true,
          "internalType": "address",
          "name": "buyer",
          "type": "address"
        },
        {
          "indexed": true,
          "internalType": "address",
          "name": "seller",
          "type": "address"
        },
        {
          "indexed": false,
          "internalType": "uint256",
          "name": "units",
          "type": "uint256"
        },
        {
          "indexed": false,
          "internalType": "uint256",
          "name": "totalCost",
          "type": "uint256"
        }
      ],
      "name": "PurchaseEvent",
      "type": "event"
    },
    {
      "inputs": [],
      "name": "energyDataContract",
      "outputs": [
        {
          "internalType": "contract EnergyDataContract",
          "name": "",
          "type": "address"
        }
      ],
      "stateMutability": "view",
      "type": "function",
      "constant": true
    },
    {
      "inputs": [
        {
          "internalType": "uint256",
          "name": "",
          "type": "uint256"
        }
      ],
      "name": "listings",
      "outputs": [
        {
          "internalType": "address",
          "name": "seller",
          "type": "address"
        },
        {
          "internalType": "uint256",
          "name": "units",
          "type": "uint256"
        },
        {
          "internalType": "uint256",
          "name": "pricePerUnit",
          "type": "uint256"
        },
        {
          "internalType": "bool",
          "name": "active",
          "type": "bool"
        }
      ],
      "stateMutability": "view",
      "type": "function",
      "constant": true
    },
    {
      "inputs": [
        {
          "internalType": "uint256",
          "name": "",
          "type": "uint256"
        }
      ],
      "name": "transactions",
      "outputs": [
        {
          "internalType": "address",
          "name": "buyer",
          "type": "address"
        },
        {
          "internalType": "address",
          "name": "seller",
          "type": "address"
        },
        {
          "internalType": "uint256",
          "name": "units",
          "type": "uint256"
        },
        {
          "internalType": "uint256",
          "name": "totalCost",
          "type": "uint256"
        }
      ],
      "stateMutability": "view",
      "type": "function",
      "constant": true
    },
    {
      "inputs": [],
      "name": "userContract",
      "outputs": [
        {
          "internalType": "contract UserContract",
          "name": "",
          "type": "address"
        }
      ],
      "stateMutability": "view",
      "type": "function",
      "constant": true
    },
    {
      "inputs": [
        {
          "internalType": "uint256",
          "name": "units",
          "type": "uint256"
        },
        {
          "internalType": "uint256",
          "name": "pricePerUnit",
          "type": "uint256"
        }
      ],
      "name": "addListing",
      "outputs": [],
      "stateMutability": "nonpayable",
      "type": "function"
    },
    {
      "inputs": [
        {
          "internalType": "uint256",
          "name": "listingId",
          "type": "uint256"
        }
      ],
      "name": "purchase",
      "outputs": [],
      "stateMutability": "payable",
      "type": "function",
      "payable": true
    },
    {
      "inputs": [],
      "name": "getListingCount",
      "outputs": [
        {
          "internalType": "uint256",
          "name": "",
          "type": "uint256"
        }
      ],
      "stateMutability": "view",
      "type": "function",
      "constant": true
    }
  ],
  "bytecode": "0x608060405234801562000010575f80fd5b506040516200100f3803806200100f833981810160405281019062000036919062000122565b815f806101000a81548173ffffffffffffffffffffffffffffffffffffffff021916908373ffffffffffffffffffffffffffffffffffffffff1602179055508060015f6101000a81548173ffffffffffffffffffffffffffffffffffffffff021916908373ffffffffffffffffffffffffffffffffffffffff160217905550505062000167565b5f80fd5b5f73ffffffffffffffffffffffffffffffffffffffff82169050919050565b5f620000ec82620000c1565b9050919050565b620000fe81620000e0565b811462000109575f80fd5b50565b5f815190506200011c81620000f3565b92915050565b5f80604083850312156200013b576200013a620000bd565b5b5f6200014a858286016200010c565b92505060206200015d858286016200010c565b9150509250929050565b610e9a80620001755f395ff3fe60806040526004361061006f575f3560e01c806387ed92d71161004d57806387ed92d7146100ef5780639ace38c214610119578063de74e57b14610158578063efef39a1146101975761006f565b8063423db5d3146100735780635000596b1461009d578063836cf6e9146100c7575b5f80fd5b34801561007e575f80fd5b506100876101b3565b604051610094919061095e565b60405180910390f35b3480156100a8575f80fd5b506100b16101d8565b6040516100be9190610997565b60405180910390f35b3480156100d2575f80fd5b506100ed60048036038101906100e891906109e7565b6101fb565b005b3480156100fa575f80fd5b506101036103dc565b6040516101109190610a34565b60405180910390f35b348015610124575f80fd5b5061013f600480360381019061013a9190610a4d565b6103e8565b60405161014f9493929190610a98565b60405180910390f35b348015610163575f80fd5b5061017e60048036038101906101799190610a4d565b610461565b60405161018e9493929190610af5565b60405180910390f35b6101b160048036038101906101ac9190610a4d565b6104c7565b005b60015f9054906101000a900473ffffffffffffffffffffffffffffffffffffffff1681565b5f8054906101000a900473ffffffffffffffffffffffffffffffffffffffff1681565b5f805f9054906101000a900473ffffffffffffffffffffffffffffffffffffffff1673ffffffffffffffffffffffffffffffffffffffff166327820851336040518263ffffffff1660e01b81526004016102559190610b38565b602060405180830381865afa158015610270573d5f803e3d5ffd5b505050506040513d601f19601f820116820180604052508101906102949190610b74565b90506001808111156102a9576102a8610b9f565b5b8160018111156102bc576102bb610b9f565b5b146102fc576040517f08c379a00000000000000000000000000000000000000000000000000000000081526004016102f390610c26565b60405180910390fd5b600360405180608001604052803373ffffffffffffffffffffffffffffffffffffffff16815260200185815260200184815260200160011515815250908060018154018082558091505060019003905f5260205f2090600402015f909190919091505f820151815f015f6101000a81548173ffffffffffffffffffffffffffffffffffffffff021916908373ffffffffffffffffffffffffffffffffffffffff16021790555060208201518160010155604082015181600201556060820151816003015f6101000a81548160ff0219169083151502179055505050505050565b5f600380549050905090565b600281815481106103f7575f80fd5b905f5260205f2090600402015f91509050805f015f9054906101000a900473ffffffffffffffffffffffffffffffffffffffff1690806001015f9054906101000a900473ffffffffffffffffffffffffffffffffffffffff16908060020154908060030154905084565b60038181548110610470575f80fd5b905f5260205f2090600402015f91509050805f015f9054906101000a900473ffffffffffffffffffffffffffffffffffffffff1690806001015490806002015490806003015f9054906101000a900460ff16905084565b5f600382815481106104dc576104db610c44565b5b905f5260205f20906004020190505f805f9054906101000a900473ffffffffffffffffffffffffffffffffffffffff1673ffffffffffffffffffffffffffffffffffffffff166327820851336040518263ffffffff1660e01b81526004016105449190610b38565b602060405180830381865afa15801561055f573d5f803e3d5ffd5b505050506040513d601f19601f820116820180604052508101906105839190610b74565b9050816003015f9054906101000a900460ff166105d5576040517f08c379a00000000000000000000000000000000000000000000000000000000081526004016105cc90610cbb565b60405180910390fd5b5f60018111156105e8576105e7610b9f565b5b8160018111156105fb576105fa610b9f565b5b1461063b576040517f08c379a000000000000000000000000000000000000000000000000000000000815260040161063290610d23565b60405180910390fd5b5f826001015483600201546106509190610d6e565b9050803414610694576040517f08c379a000000000000000000000000000000000000000000000000000000000815260040161068b90610e1f565b60405180910390fd5b5f836003015f6101000a81548160ff021916908315150217905550600260405180608001604052803373ffffffffffffffffffffffffffffffffffffffff168152602001855f015f9054906101000a900473ffffffffffffffffffffffffffffffffffffffff1673ffffffffffffffffffffffffffffffffffffffff1681526020018560010154815260200183815250908060018154018082558091505060019003905f5260205f2090600402015f909190919091505f820151815f015f6101000a81548173ffffffffffffffffffffffffffffffffffffffff021916908373ffffffffffffffffffffffffffffffffffffffff1602179055506020820151816001015f6101000a81548173ffffffffffffffffffffffffffffffffffffffff021916908373ffffffffffffffffffffffffffffffffffffffff16021790555060408201518160020155606082015181600301555050825f015f9054906101000a900473ffffffffffffffffffffffffffffffffffffffff1673ffffffffffffffffffffffffffffffffffffffff166108fc8290811502906040515f60405180830381858888f1935050505015801561084f573d5f803e3d5ffd5b50825f015f9054906101000a900473ffffffffffffffffffffffffffffffffffffffff1673ffffffffffffffffffffffffffffffffffffffff163373ffffffffffffffffffffffffffffffffffffffff16857f08924678056497e7b16f05c6afd439f90adf77a23b24b36cfda3fa6750fd08128660010154856040516108d6929190610e3d565b60405180910390a450505050565b5f73ffffffffffffffffffffffffffffffffffffffff82169050919050565b5f819050919050565b5f61092661092161091c846108e4565b610903565b6108e4565b9050919050565b5f6109378261090c565b9050919050565b5f6109488261092d565b9050919050565b6109588161093e565b82525050565b5f6020820190506109715f83018461094f565b92915050565b5f6109818261092d565b9050919050565b61099181610977565b82525050565b5f6020820190506109aa5f830184610988565b92915050565b5f80fd5b5f819050919050565b6109c6816109b4565b81146109d0575f80fd5b50565b5f813590506109e1816109bd565b92915050565b5f80604083850312156109fd576109fc6109b0565b5b5f610a0a858286016109d3565b9250506020610a1b858286016109d3565b9150509250929050565b610a2e816109b4565b82525050565b5f602082019050610a475f830184610a25565b92915050565b5f60208284031215610a6257610a616109b0565b5b5f610a6f848285016109d3565b91505092915050565b5f610a82826108e4565b9050919050565b610a9281610a78565b82525050565b5f608082019050610aab5f830187610a89565b610ab86020830186610a89565b610ac56040830185610a25565b610ad26060830184610a25565b95945050505050565b5f8115159050919050565b610aef81610adb565b82525050565b5f608082019050610b085f830187610a89565b610b156020830186610a25565b610b226040830185610a25565b610b2f6060830184610ae6565b95945050505050565b5f602082019050610b4b5f830184610a89565b92915050565b60028110610b5d575f80fd5b50565b5f81519050610b6e81610b51565b92915050565b5f60208284031215610b8957610b886109b0565b5b5f610b9684828501610b60565b91505092915050565b7f4e487b71000000000000000000000000000000000000000000000000000000005f52602160045260245ffd5b5f82825260208201905092915050565b7f4f6e6c792073656c6c6572732063616e20616464206c697374696e67730000005f82015250565b5f610c10601d83610bcc565b9150610c1b82610bdc565b602082019050919050565b5f6020820190508181035f830152610c3d81610c04565b9050919050565b7f4e487b71000000000000000000000000000000000000000000000000000000005f52603260045260245ffd5b7f4c697374696e67206973206e6f742061637469766500000000000000000000005f82015250565b5f610ca5601583610bcc565b9150610cb082610c71565b602082019050919050565b5f6020820190508181035f830152610cd281610c99565b9050919050565b7f4f6e6c79206275796572732063616e20707572636861736500000000000000005f82015250565b5f610d0d601883610bcc565b9150610d1882610cd9565b602082019050919050565b5f6020820190508181035f830152610d3a81610d01565b9050919050565b7f4e487b71000000000000000000000000000000000000000000000000000000005f52601160045260245ffd5b5f610d78826109b4565b9150610d83836109b4565b9250828202610d91816109b4565b91508282048414831517610da857610da7610d41565b5b5092915050565b7f5468652073656e7420657468657220616d6f756e74206d75737420657175616c5f8201527f202870726963652070657220756e6974202a20756e6974732900000000000000602082015250565b5f610e09603983610bcc565b9150610e1482610daf565b604082019050919050565b5f6020820190508181035f830152610e3681610dfd565b9050919050565b5f604082019050610e505f830185610a25565b610e5d6020830184610a25565b939250505056fea264697066735822122000c8375b95830cd60bc71658a4f99575eb2db6d16e355eec47ddf10443ef519264736f6c63430008140033",
  "immutableReferences": {},
  "source": "// SPDX-License-Identifier: MIT\npragma solidity ^0.8.0;\n\nimport \"@chainlink/contracts/src/v0.8/ChainlinkClient.sol\";\nimport \"./UserContract.sol\";\nimport \"./EnergyDataContract.sol\";\n\ncontract MarketContract {\n    struct Listing {\n        address seller;\n        uint256 units;\n        uint256 pricePerUnit;\n        bool active;\n    }\n\n    struct Transaction {\n        address buyer;\n        address seller;\n        uint256 units;\n        uint256 totalCost;\n    }\n\n    UserContract public userContract;\n    EnergyDataContract public energyDataContract;\n\n    Transaction[] public transactions;\n    Listing[] public listings;\n\n    // Define an Event\n    event PurchaseEvent(uint256 indexed listingId, address indexed buyer, address indexed seller, uint256 units, uint256 totalCost);\n\n    constructor(address _userContract, address _energyDataContract) {\n        userContract = UserContract(_userContract);\n        energyDataContract = EnergyDataContract(_energyDataContract);\n    }\n\n    function addListing(uint256 units, uint256 pricePerUnit) public {\n        UserContract.Role role = userContract.getUserRole(msg.sender);\n        require(role == UserContract.Role.Seller, \"Only sellers can add listings\");   \n        listings.push(Listing(msg.sender, units, pricePerUnit, true));\n    }\n\n    function purchase(uint256 listingId) public payable {\n        Listing storage listing = listings[listingId];\n        UserContract.Role role = userContract.getUserRole(msg.sender);\n\n        require(listing.active, \"Listing is not active\");\n        require(role == UserContract.Role.Buyer, \"Only buyers can purchase\");\n        \n        uint256 totalCost = listing.pricePerUnit * listing.units;\n        require(msg.value == totalCost, \"The sent ether amount must equal (price per unit * units)\");\n\n        listing.active = false;\n        transactions.push(Transaction(msg.sender, listing.seller, listing.units, totalCost));\n\n        payable(listing.seller).transfer(totalCost);\n\n        // Emit the PurchaseEvent\n        emit PurchaseEvent(listingId, msg.sender, listing.seller, listing.units, totalCost);\n    }\n\n    function getListingCount() public view returns (uint) {\n        return listings.length;\n    }\n}\n",
  "sourcePath": "/home/evm/bsc2024/energy_market/contracts/MarketContract.sol",
  "compiler": {
    "name": "solc",
    "version": "0.8.20+commit.a1b79de6.Emscripten.clang"
  },
  "schemaVersion": "3.4.14",
  "updatedAt": "2024-03-04T16:21:46.304Z",
  "networkType": "ethereum",
  "devdoc": {
    "kind": "dev",
    "methods": {},
    "version": 1
  },
  "userdoc": {
    "kind": "user",
    "methods": {},
    "version": 1
  }
}