{
  "contractName": "UserContract",
  "abi": [
    {
      "inputs": [
        {
          "internalType": "address",
          "name": "",
          "type": "address"
        }
      ],
      "name": "users",
      "outputs": [
        {
          "internalType": "enum UserContract.Role",
          "name": "",
          "type": "uint8"
        }
      ],
      "stateMutability": "view",
      "type": "function",
      "constant": true
    },
    {
      "inputs": [],
      "name": "becomeSeller",
      "outputs": [],
      "stateMutability": "nonpayable",
      "type": "function"
    },
    {
      "inputs": [
        {
          "internalType": "address",
          "name": "_address",
          "type": "address"
        }
      ],
      "name": "getUserRole",
      "outputs": [
        {
          "internalType": "enum UserContract.Role",
          "name": "",
          "type": "uint8"
        }
      ],
      "stateMutability": "view",
      "type": "function",
      "constant": true
    }
  ],
  "bytecode": "0x608060405234801561000f575f80fd5b506103008061001d5f395ff3fe608060405234801561000f575f80fd5b506004361061003f575f3560e01c806327820851146100435780638f299b1e14610073578063a87430ba1461007d575b5f80fd5b61005d60048036038101906100589190610213565b6100ad565b60405161006a91906102b1565b60405180910390f35b61007b610133565b005b61009760048036038101906100929190610213565b610199565b6040516100a491906102b1565b60405180910390f35b5f6001808111156100c1576100c061023e565b5b5f808473ffffffffffffffffffffffffffffffffffffffff1673ffffffffffffffffffffffffffffffffffffffff1681526020019081526020015f205f9054906101000a900460ff16600181111561011c5761011b61023e565b5b0361012a576001905061012e565b5f90505b919050565b60015f803373ffffffffffffffffffffffffffffffffffffffff1673ffffffffffffffffffffffffffffffffffffffff1681526020019081526020015f205f6101000a81548160ff021916908360018111156101925761019161023e565b5b0217905550565b5f602052805f5260405f205f915054906101000a900460ff1681565b5f80fd5b5f73ffffffffffffffffffffffffffffffffffffffff82169050919050565b5f6101e2826101b9565b9050919050565b6101f2816101d8565b81146101fc575f80fd5b50565b5f8135905061020d816101e9565b92915050565b5f60208284031215610228576102276101b5565b5b5f610235848285016101ff565b91505092915050565b7f4e487b71000000000000000000000000000000000000000000000000000000005f52602160045260245ffd5b6002811061027c5761027b61023e565b5b50565b5f81905061028c8261026b565b919050565b5f61029b8261027f565b9050919050565b6102ab81610291565b82525050565b5f6020820190506102c45f8301846102a2565b9291505056fea26469706673582212204e46eb9a9d41b47de09a68ab22da6e3224acc13622263ec13a53bd1c17741c2e64736f6c63430008140033",
  "immutableReferences": {},
  "source": "// SPDX-License-Identifier: MIT\npragma solidity ^0.8.0;\n\ncontract UserContract {\n    enum Role { Buyer, Seller }\n\n    mapping(address => Role) public users;\n\n    function becomeSeller() public {\n        users[msg.sender] = Role.Seller;\n    }\n\n    function getUserRole(address _address) public view returns(Role) {\n        if(users[_address] == Role.Seller) {\n            return Role.Seller;\n        } else {\n            return Role.Buyer;\n        }\n    }\n}\n\n\n\n\n\n",
  "sourcePath": "/home/evm/bsc2024/energy_market/contracts/UserContract.sol",
  "compiler": {
    "name": "solc",
    "version": "0.8.20+commit.a1b79de6.Emscripten.clang"
  },
  "schemaVersion": "3.4.14",
  "updatedAt": "2024-03-04T16:21:46.309Z",
  "networkType": "ethereum",
  "devdoc": {
    "kind": "dev",
    "methods": {},
    "version": 1
  },
  "userdoc": {
    "kind": "user",
    "methods": {},
    "version": 1
  }
}