{
  "contractName": "EnergyDataContract",
  "abi": [
    {
      "inputs": [],
      "stateMutability": "nonpayable",
      "type": "constructor"
    },
    {
      "anonymous": false,
      "inputs": [
        {
          "indexed": true,
          "internalType": "bytes32",
          "name": "id",
          "type": "bytes32"
        }
      ],
      "name": "ChainlinkCancelled",
      "type": "event"
    },
    {
      "anonymous": false,
      "inputs": [
        {
          "indexed": true,
          "internalType": "bytes32",
          "name": "id",
          "type": "bytes32"
        }
      ],
      "name": "ChainlinkFulfilled",
      "type": "event"
    },
    {
      "anonymous": false,
      "inputs": [
        {
          "indexed": true,
          "internalType": "bytes32",
          "name": "id",
          "type": "bytes32"
        }
      ],
      "name": "ChainlinkRequested",
      "type": "event"
    },
    {
      "anonymous": false,
      "inputs": [
        {
          "indexed": true,
          "internalType": "bytes32",
          "name": "requestId",
          "type": "bytes32"
        },
        {
          "indexed": true,
          "internalType": "uint256",
          "name": "_unitsProduced",
          "type": "uint256"
        }
      ],
      "name": "RequestFulfilled",
      "type": "event"
    },
    {
      "inputs": [
        {
          "internalType": "uint256",
          "name": "",
          "type": "uint256"
        }
      ],
      "name": "consumptionDataPoints",
      "outputs": [
        {
          "internalType": "uint256",
          "name": "timestamp",
          "type": "uint256"
        },
        {
          "internalType": "uint256",
          "name": "value",
          "type": "uint256"
        }
      ],
      "stateMutability": "view",
      "type": "function",
      "constant": true
    },
    {
      "inputs": [
        {
          "internalType": "address",
          "name": "",
          "type": "address"
        }
      ],
      "name": "energyData",
      "outputs": [
        {
          "internalType": "uint256",
          "name": "productionTimestamp",
          "type": "uint256"
        },
        {
          "internalType": "uint256",
          "name": "unitsProduced",
          "type": "uint256"
        },
        {
          "internalType": "uint256",
          "name": "consumptionTimestamp",
          "type": "uint256"
        },
        {
          "internalType": "uint256",
          "name": "unitsConsumed",
          "type": "uint256"
        }
      ],
      "stateMutability": "view",
      "type": "function",
      "constant": true
    },
    {
      "inputs": [
        {
          "internalType": "uint256",
          "name": "",
          "type": "uint256"
        }
      ],
      "name": "productionDataPoints",
      "outputs": [
        {
          "internalType": "uint256",
          "name": "timestamp",
          "type": "uint256"
        },
        {
          "internalType": "uint256",
          "name": "value",
          "type": "uint256"
        }
      ],
      "stateMutability": "view",
      "type": "function",
      "constant": true
    },
    {
      "inputs": [],
      "name": "requestEnergyProductionData",
      "outputs": [],
      "stateMutability": "nonpayable",
      "type": "function"
    },
    {
      "inputs": [
        {
          "internalType": "bytes32",
          "name": "_requestId",
          "type": "bytes32"
        },
        {
          "internalType": "uint256",
          "name": "_unitsProduced",
          "type": "uint256"
        }
      ],
      "name": "fulfillEnergyProductionData",
      "outputs": [],
      "stateMutability": "nonpayable",
      "type": "function"
    },
    {
      "inputs": [],
      "name": "requestEnergyConsumptionData",
      "outputs": [],
      "stateMutability": "nonpayable",
      "type": "function"
    },
    {
      "inputs": [
        {
          "internalType": "bytes32",
          "name": "_requestId",
          "type": "bytes32"
        },
        {
          "internalType": "uint256",
          "name": "_unitsConsumed",
          "type": "uint256"
        }
      ],
      "name": "fulfillEnergyConsumptionData",
      "outputs": [],
      "stateMutability": "nonpayable",
      "type": "function"
    },
    {
      "inputs": [
        {
          "internalType": "address",
          "name": "_address",
          "type": "address"
        }
      ],
      "name": "getUserEnergyData",
      "outputs": [
        {
          "internalType": "uint256",
          "name": "",
          "type": "uint256"
        },
        {
          "internalType": "uint256",
          "name": "",
          "type": "uint256"
        },
        {
          "internalType": "uint256",
          "name": "",
          "type": "uint256"
        },
        {
          "internalType": "uint256",
          "name": "",
          "type": "uint256"
        }
      ],
      "stateMutability": "view",
      "type": "function",
      "constant": true
    },
    {
      "inputs": [],
      "name": "getProductionDataPoints",
      "outputs": [
        {
          "components": [
            {
              "internalType": "uint256",
              "name": "timestamp",
              "type": "uint256"
            },
            {
              "internalType": "uint256",
              "name": "value",
              "type": "uint256"
            }
          ],
          "internalType": "struct EnergyDataContract.DataPoint[]",
          "name": "",
          "type": "tuple[]"
        }
      ],
      "stateMutability": "view",
      "type": "function",
      "constant": true
    },
    {
      "inputs": [],
      "name": "getConsumptionDataPoints",
      "outputs": [
        {
          "components": [
            {
              "internalType": "uint256",
              "name": "timestamp",
              "type": "uint256"
            },
            {
              "internalType": "uint256",
              "name": "value",
              "type": "uint256"
            }
          ],
          "internalType": "struct EnergyDataContract.DataPoint[]",
          "name": "",
          "type": "tuple[]"
        }
      ],
      "stateMutability": "view",
      "type": "function",
      "constant": true
    },
    {
      "inputs": [],
      "name": "getLatestEthUsdPrice",
      "outputs": [
        {
          "internalType": "int256",
          "name": "",
          "type": "int256"
        }
      ],
      "stateMutability": "view",
      "type": "function",
      "constant": true
    },
    {
      "inputs": [
        {
          "internalType": "string",
          "name": "source",
          "type": "string"
        }
      ],
      "name": "stringToBytes32",
      "outputs": [
        {
          "internalType": "bytes32",
          "name": "result",
          "type": "bytes32"
        }
      ],
      "stateMutability": "pure",
      "type": "function",
      "constant": true
    }
  ],
  "bytecode": "0x6080604052600160045534801562000015575f80fd5b5073ec39a0c27b4e7f6c5a02f6aa52f7153cf8c210f160065f6101000a81548173ffffffffffffffffffffffffffffffffffffffff021916908373ffffffffffffffffffffffffffffffffffffffff16021790555067016345785d8a00006009819055506200009e73779877a7b0d9e8603169ddbd7836e478b46247896200019060201b60201c565b620000e46040518060400160405280602081526020017f6633643930346333353139613433633639623061626135623664376137386636815250620001d360201b60201c565b600781905550620001306040518060400160405280602081526020017f3131653861623537336564653462393738623464643036313963343464343637815250620001d360201b60201c565b60088190555073694aa1769357215de4fac081bf1f309adc325306600a5f6101000a81548173ffffffffffffffffffffffffffffffffffffffff021916908373ffffffffffffffffffffffffffffffffffffffff160217905550620001fb565b8060025f6101000a81548173ffffffffffffffffffffffffffffffffffffffff021916908373ffffffffffffffffffffffffffffffffffffffff16021790555050565b5f808290505f815103620001ed575f801b915050620001f6565b60208301519150505b919050565b6118fe80620002095f395ff3fe608060405234801561000f575f80fd5b50600436106100b2575f3560e01c806368e963281161006f57806368e96328146101a357806394ef486b146101ad578063a8c8ed29146101e0578063cfb51928146101ea578063e2b0d1e51461021a578063f777509914610236576100b2565b80630a2559cc146100b65780632fccbcc7146100e957806330214599146101075780633b2fb9aa146101255780634389130d146101415780635e56557f14610172575b5f80fd5b6100d060048036038101906100cb9190610ea7565b610254565b6040516100e09493929190610eea565b60405180910390f35b6100f1610280565b6040516100fe9190611011565b60405180910390f35b61010f6102ef565b60405161011c9190611049565b60405180910390f35b61013f600480360381019061013a91906110bf565b610398565b005b61015b600480360381019061015691906110fd565b6105a4565b604051610169929190611128565b60405180910390f35b61018c600480360381019061018791906110fd565b6105d3565b60405161019a929190611128565b60405180910390f35b6101ab610602565b005b6101c760048036038101906101c29190610ea7565b61064b565b6040516101d79493929190610eea565b60405180910390f35b6101e8610761565b005b61020460048036038101906101ff919061128b565b6107aa565b60405161021191906112e1565b60405180910390f35b610234600480360381019061022f91906110bf565b6107d0565b005b61023e6109af565b60405161024b9190611011565b60405180910390f35b600b602052805f5260405f205f91509050805f0154908060010154908060020154908060030154905084565b6060600c805480602002602001604051908101604052809291908181526020015f905b828210156102e6578382905f5260205f2090600202016040518060400160405290815f8201548152602001600182015481525050815260200190600101906102a3565b50505050905090565b5f805f805f80600a5f9054906101000a900473ffffffffffffffffffffffffffffffffffffffff1673ffffffffffffffffffffffffffffffffffffffff1663feaf968c6040518163ffffffff1660e01b815260040160a060405180830381865afa15801561035f573d5f803e3d5ffd5b505050506040513d601f19601f820116820180604052508101906103839190611377565b94509450945094509450839550505050505090565b8160055f8281526020019081526020015f205f9054906101000a900473ffffffffffffffffffffffffffffffffffffffff1673ffffffffffffffffffffffffffffffffffffffff163373ffffffffffffffffffffffffffffffffffffffff1614610437576040517f08c379a000000000000000000000000000000000000000000000000000000000815260040161042e9061146e565b60405180910390fd5b60055f8281526020019081526020015f205f6101000a81549073ffffffffffffffffffffffffffffffffffffffff0219169055807f7cc135e0cebb02c3480ae5d74d377283180a2601f8f644edf7987b009316c63a60405160405180910390a281837f1ca8663227a7fe9919713a01d344afbb434e234f35a3e540a6ad924f88771f3860405160405180910390a381600b5f3373ffffffffffffffffffffffffffffffffffffffff1673ffffffffffffffffffffffffffffffffffffffff1681526020019081526020015f206001018190555042600b5f3373ffffffffffffffffffffffffffffffffffffffff1673ffffffffffffffffffffffffffffffffffffffff1681526020019081526020015f205f0181905550600c604051806040016040528042815260200184815250908060018154018082558091505060019003905f5260205f2090600202015f909190919091505f820151815f0155602082015181600101555050505050565b600c81815481106105b3575f80fd5b905f5260205f2090600202015f91509050805f0154908060010154905082565b600d81815481106105e2575f80fd5b905f5260205f2090600202015f91509050805f0154908060010154905082565b5f61061760075430633b2fb9aa60e01b610a1e565b905061064760065f9054906101000a900473ffffffffffffffffffffffffffffffffffffffff1682600954610a4f565b5050565b5f805f80600b5f8673ffffffffffffffffffffffffffffffffffffffff1673ffffffffffffffffffffffffffffffffffffffff1681526020019081526020015f205f0154600b5f8773ffffffffffffffffffffffffffffffffffffffff1673ffffffffffffffffffffffffffffffffffffffff1681526020019081526020015f2060010154600b5f8873ffffffffffffffffffffffffffffffffffffffff1673ffffffffffffffffffffffffffffffffffffffff1681526020019081526020015f2060020154600b5f8973ffffffffffffffffffffffffffffffffffffffff1673ffffffffffffffffffffffffffffffffffffffff1681526020019081526020015f206003015493509350935093509193509193565b5f6107766008543063e2b0d1e560e01b610a1e565b90506107a660065f9054906101000a900473ffffffffffffffffffffffffffffffffffffffff1682600954610a4f565b5050565b5f808290505f8151036107c2575f801b9150506107cb565b60208301519150505b919050565b8160055f8281526020019081526020015f205f9054906101000a900473ffffffffffffffffffffffffffffffffffffffff1673ffffffffffffffffffffffffffffffffffffffff163373ffffffffffffffffffffffffffffffffffffffff161461086f576040517f08c379a00000000000000000000000000000000000000000000000000000000081526004016108669061146e565b60405180910390fd5b60055f8281526020019081526020015f205f6101000a81549073ffffffffffffffffffffffffffffffffffffffff0219169055807f7cc135e0cebb02c3480ae5d74d377283180a2601f8f644edf7987b009316c63a60405160405180910390a281600b5f3373ffffffffffffffffffffffffffffffffffffffff1673ffffffffffffffffffffffffffffffffffffffff1681526020019081526020015f206003018190555042600b5f3373ffffffffffffffffffffffffffffffffffffffff1673ffffffffffffffffffffffffffffffffffffffff1681526020019081526020015f2060020181905550600d604051806040016040528042815260200184815250908060018154018082558091505060019003905f5260205f2090600202015f909190919091505f820151815f0155602082015181600101555050505050565b6060600d805480602002602001604051908101604052809291908181526020015f905b82821015610a15578382905f5260205f2090600202016040518060400160405290815f8201548152602001600182015481525050815260200190600101906109d2565b50505050905090565b610a26610dba565b610a2e610dba565b610a4585858584610b16909392919063ffffffff16565b9150509392505050565b5f806004549050600181610a6391906114b9565b6004819055505f634042994660e01b5f80875f01513089604001518760018c608001515f0151604051602401610aa09897969594939291906115af565b604051602081830303815290604052907bffffffffffffffffffffffffffffffffffffffffffffffffffffffff19166020820180517bffffffffffffffffffffffffffffffffffffffffffffffffffffffff83818316178352505050509050610b0b86838684610bc5565b925050509392505050565b610b1e610dba565b610b2e8560800151610100610d52565b5083855f01818152505082856020019073ffffffffffffffffffffffffffffffffffffffff16908173ffffffffffffffffffffffffffffffffffffffff16815250508185604001907bffffffffffffffffffffffffffffffffffffffffffffffffffffffff191690817bffffffffffffffffffffffffffffffffffffffffffffffffffffffff191681525050849050949350505050565b5f3084604051602001610bd99291906116e3565b6040516020818303038152906040528051906020012090508460055f8381526020019081526020015f205f6101000a81548173ffffffffffffffffffffffffffffffffffffffff021916908373ffffffffffffffffffffffffffffffffffffffff160217905550807fb5e6e01e79f91267dc17b4e6314d5d4d03593d2ceee0fbb452b750bd70ea5af960405160405180910390a260025f9054906101000a900473ffffffffffffffffffffffffffffffffffffffff1673ffffffffffffffffffffffffffffffffffffffff16634000aea08685856040518463ffffffff1660e01b8152600401610ccb9392919061170e565b6020604051808303815f875af1158015610ce7573d5f803e3d5ffd5b505050506040513d601f19601f82011682018060405250810190610d0b919061177f565b610d4a576040517f08c379a0000000000000000000000000000000000000000000000000000000008152600401610d419061181a565b60405180910390fd5b949350505050565b610d5a610e23565b5f602083610d689190611865565b14610d9457602082610d7a9190611865565b6020610d869190611895565b82610d9191906114b9565b91505b818360200181815250506040518084525f81528281016020016040525082905092915050565b6040518060a001604052805f80191681526020015f73ffffffffffffffffffffffffffffffffffffffff1681526020015f7bffffffffffffffffffffffffffffffffffffffffffffffffffffffff191681526020015f8152602001610e1d610e23565b81525090565b6040518060400160405280606081526020015f81525090565b5f604051905090565b5f80fd5b5f80fd5b5f73ffffffffffffffffffffffffffffffffffffffff82169050919050565b5f610e7682610e4d565b9050919050565b610e8681610e6c565b8114610e90575f80fd5b50565b5f81359050610ea181610e7d565b92915050565b5f60208284031215610ebc57610ebb610e45565b5b5f610ec984828501610e93565b91505092915050565b5f819050919050565b610ee481610ed2565b82525050565b5f608082019050610efd5f830187610edb565b610f0a6020830186610edb565b610f176040830185610edb565b610f246060830184610edb565b95945050505050565b5f81519050919050565b5f82825260208201905092915050565b5f819050602082019050919050565b610f5f81610ed2565b82525050565b604082015f820151610f795f850182610f56565b506020820151610f8c6020850182610f56565b50505050565b5f610f9d8383610f65565b60408301905092915050565b5f602082019050919050565b5f610fbf82610f2d565b610fc98185610f37565b9350610fd483610f47565b805f5b83811015611004578151610feb8882610f92565b9750610ff683610fa9565b925050600181019050610fd7565b5085935050505092915050565b5f6020820190508181035f8301526110298184610fb5565b905092915050565b5f819050919050565b61104381611031565b82525050565b5f60208201905061105c5f83018461103a565b92915050565b5f819050919050565b61107481611062565b811461107e575f80fd5b50565b5f8135905061108f8161106b565b92915050565b61109e81610ed2565b81146110a8575f80fd5b50565b5f813590506110b981611095565b92915050565b5f80604083850312156110d5576110d4610e45565b5b5f6110e285828601611081565b92505060206110f3858286016110ab565b9150509250929050565b5f6020828403121561111257611111610e45565b5b5f61111f848285016110ab565b91505092915050565b5f60408201905061113b5f830185610edb565b6111486020830184610edb565b9392505050565b5f80fd5b5f80fd5b5f601f19601f8301169050919050565b7f4e487b71000000000000000000000000000000000000000000000000000000005f52604160045260245ffd5b61119d82611157565b810181811067ffffffffffffffff821117156111bc576111bb611167565b5b80604052505050565b5f6111ce610e3c565b90506111da8282611194565b919050565b5f67ffffffffffffffff8211156111f9576111f8611167565b5b61120282611157565b9050602081019050919050565b828183375f83830152505050565b5f61122f61122a846111df565b6111c5565b90508281526020810184848401111561124b5761124a611153565b5b61125684828561120f565b509392505050565b5f82601f8301126112725761127161114f565b5b813561128284826020860161121d565b91505092915050565b5f602082840312156112a05761129f610e45565b5b5f82013567ffffffffffffffff8111156112bd576112bc610e49565b5b6112c98482850161125e565b91505092915050565b6112db81611062565b82525050565b5f6020820190506112f45f8301846112d2565b92915050565b5f69ffffffffffffffffffff82169050919050565b611318816112fa565b8114611322575f80fd5b50565b5f815190506113338161130f565b92915050565b61134281611031565b811461134c575f80fd5b50565b5f8151905061135d81611339565b92915050565b5f8151905061137181611095565b92915050565b5f805f805f60a086880312156113905761138f610e45565b5b5f61139d88828901611325565b95505060206113ae8882890161134f565b94505060406113bf88828901611363565b93505060606113d088828901611363565b92505060806113e188828901611325565b9150509295509295909350565b5f82825260208201905092915050565b7f536f75726365206d75737420626520746865206f7261636c65206f66207468655f8201527f2072657175657374000000000000000000000000000000000000000000000000602082015250565b5f6114586028836113ee565b9150611463826113fe565b604082019050919050565b5f6020820190508181035f8301526114858161144c565b9050919050565b7f4e487b71000000000000000000000000000000000000000000000000000000005f52601160045260245ffd5b5f6114c382610ed2565b91506114ce83610ed2565b92508282019050808211156114e6576114e561148c565b5b92915050565b6114f581610e6c565b82525050565b5f7fffffffff0000000000000000000000000000000000000000000000000000000082169050919050565b61152f816114fb565b82525050565b5f81519050919050565b5f82825260208201905092915050565b5f5b8381101561156c578082015181840152602081019050611551565b5f8484015250505050565b5f61158182611535565b61158b818561153f565b935061159b81856020860161154f565b6115a481611157565b840191505092915050565b5f610100820190506115c35f83018b6114ec565b6115d0602083018a610edb565b6115dd60408301896112d2565b6115ea60608301886114ec565b6115f76080830187611526565b61160460a0830186610edb565b61161160c0830185610edb565b81810360e08301526116238184611577565b90509998505050505050505050565b5f819050919050565b5f61165561165061164b84610e4d565b611632565b610e4d565b9050919050565b5f6116668261163b565b9050919050565b5f6116778261165c565b9050919050565b5f8160601b9050919050565b5f6116948261167e565b9050919050565b5f6116a58261168a565b9050919050565b6116bd6116b88261166d565b61169b565b82525050565b5f819050919050565b6116dd6116d882610ed2565b6116c3565b82525050565b5f6116ee82856116ac565b6014820191506116fe82846116cc565b6020820191508190509392505050565b5f6060820190506117215f8301866114ec565b61172e6020830185610edb565b81810360408301526117408184611577565b9050949350505050565b5f8115159050919050565b61175e8161174a565b8114611768575f80fd5b50565b5f8151905061177981611755565b92915050565b5f6020828403121561179457611793610e45565b5b5f6117a18482850161176b565b91505092915050565b7f756e61626c6520746f207472616e73666572416e6443616c6c20746f206f72615f8201527f636c650000000000000000000000000000000000000000000000000000000000602082015250565b5f6118046023836113ee565b915061180f826117aa565b604082019050919050565b5f6020820190508181035f830152611831816117f8565b9050919050565b7f4e487b71000000000000000000000000000000000000000000000000000000005f52601260045260245ffd5b5f61186f82610ed2565b915061187a83610ed2565b92508261188a57611889611838565b5b828206905092915050565b5f61189f82610ed2565b91506118aa83610ed2565b92508282039050818111156118c2576118c161148c565b5b9291505056fea26469706673582212208d902911e3c6cce269c9131528d78eb26ff090d00884459e1da2bb6ca5a4bb0f64736f6c63430008140033",
  "immutableReferences": {},
  "source": "// SPDX-License-Identifier: MIT\npragma solidity ^0.8.7;\n\nimport \"@chainlink/contracts/src/v0.8/ChainlinkClient.sol\";\nimport \"@chainlink/contracts/src/v0.8/interfaces/AggregatorV3Interface.sol\";\n\ncontract EnergyDataContract is ChainlinkClient {\n    using Chainlink for Chainlink.Request;\n\n    address private oracle;\n    bytes32 private productionJobId;\n    bytes32 private consumptionJobId;\n    uint256 private fee;\n    AggregatorV3Interface internal ethPriceFeed;\n\n    struct EnergyData {\n        uint256 productionTimestamp;\n        uint256 unitsProduced;\n        uint256 consumptionTimestamp;\n        uint256 unitsConsumed;\n    }\n\n    struct DataPoint {\n        uint256 timestamp;\n        uint256 value;\n    }\n\n    event RequestFulfilled(\n        bytes32 indexed requestId,\n        uint256 indexed _unitsProduced\n    );\n\n    mapping(address => EnergyData) public energyData;\n    DataPoint[] public productionDataPoints;\n    DataPoint[] public consumptionDataPoints;\n\n    constructor() {\n        // Hardcoding the values\n        oracle = 0xec39A0C27b4E7F6c5a02F6AA52F7153Cf8C210f1;\n        fee = 0.1 * 10 ** 18; // 0.1 LINK\n        setChainlinkToken(0x779877A7B0D9E8603169DdbD7836e478b4624789);\n        productionJobId = stringToBytes32(\"f3d904c3519a43c69b0aba5b6d7a78f6\");\n        consumptionJobId = stringToBytes32(\"11e8ab573ede4b978b4dd0619c44d467\");        \n        ethPriceFeed = AggregatorV3Interface(0x694AA1769357215DE4FAC081bf1f309aDC325306);\n    }\n\n    function requestEnergyProductionData() public {\n        Chainlink.Request memory req = buildChainlinkRequest(\n            productionJobId,\n            address(this),\n            this.fulfillEnergyProductionData.selector\n        );\n        sendChainlinkRequestTo(oracle, req, fee);\n    }\n\n    function fulfillEnergyProductionData(bytes32 _requestId, uint256 _unitsProduced) public recordChainlinkFulfillment(_requestId) {\n        emit RequestFulfilled(_requestId, _unitsProduced);\n        energyData[msg.sender].unitsProduced = _unitsProduced;\n        energyData[msg.sender].productionTimestamp = block.timestamp;\n\n        productionDataPoints.push(DataPoint(block.timestamp, _unitsProduced));\n    }\n\n    function requestEnergyConsumptionData() public {\n        Chainlink.Request memory req = buildChainlinkRequest(consumptionJobId, address(this), this.fulfillEnergyConsumptionData.selector);\n        sendChainlinkRequestTo(oracle, req, fee);\n    }\n\n    function fulfillEnergyConsumptionData(bytes32 _requestId, uint256 _unitsConsumed) public recordChainlinkFulfillment(_requestId) {\n        energyData[msg.sender].unitsConsumed = _unitsConsumed;\n        energyData[msg.sender].consumptionTimestamp = block.timestamp;\n\n        consumptionDataPoints.push(DataPoint(block.timestamp, _unitsConsumed));\n    }\n\n    function getUserEnergyData(address _address) public view returns(uint256, uint256, uint256, uint256) {\n        return (energyData[_address].productionTimestamp, energyData[_address].unitsProduced, energyData[_address].consumptionTimestamp, energyData[_address].unitsConsumed);\n    }\n\n    function getProductionDataPoints() public view returns (DataPoint[] memory) {\n        return productionDataPoints;\n    }\n\n    function getConsumptionDataPoints() public view returns (DataPoint[] memory) {\n        return consumptionDataPoints;\n    }\n\n    function getLatestEthUsdPrice() public view returns (int) {\n        (\n            uint80 roundID,\n            int price,\n            uint startedAt,\n            uint timeStamp,\n            uint80 answeredInRound\n        ) = ethPriceFeed.latestRoundData();\n        return price;\n    }\n\n    function stringToBytes32(string memory source) public pure returns (bytes32 result) {\n        bytes memory tempEmptyStringTest = bytes(source);\n        if (tempEmptyStringTest.length == 0) {\n            return 0x0;\n        }\n        assembly {\n            result := mload(add(source, 32))\n        }\n    }\n}\n\n",
  "sourcePath": "/home/evm/bsc2024/energy_market/contracts/EnergyDataContract.sol",
  "compiler": {
    "name": "solc",
    "version": "0.8.20+commit.a1b79de6.Emscripten.clang"
  },
  "schemaVersion": "3.4.14",
  "updatedAt": "2024-03-04T16:21:46.315Z",
  "networkType": "ethereum",
  "devdoc": {
    "kind": "dev",
    "methods": {},
    "version": 1
  },
  "userdoc": {
    "kind": "user",
    "methods": {},
    "version": 1
  }
}